:100000000C9462000C948A000C948A000C948A0070
:100010000C948A000C948A000C948A000C948A0038
:100020000C948A000C948A000C948A000C948A0028
:100030000C948A000C948A000C948A000C948A0018
:100040000C9471020C948A000C94E1020C94BB0293
:100050000C948A000C948A000C948A000C948A00F8
:100060000C948A000C948A000000000023002600F3
:10007000290000000000240027002A0000000000E2
:10008000250028002B0004040404040404040202D4
:100090000202020203030303030301020408102007
:1000A0004080010204081020010204081020000012
:1000B0000008000201000003040700000000000027
:1000C00000000C0511241FBECFEFD8E0DEBFCDBF6E
:1000D00011E0A0E0B1E0EAEDFBE002C005900D9276
:1000E000AE33B107D9F721E0AEE3B1E001C01D9214
:1000F000AC3EB207E1F710E0C2E6D0E004C02197C1
:10010000FE010E94E505C136D107C9F70E945803D8
:100110000C94EB050C94000090E0FC01E255FF4FBD
:100120002491FC01E656FF4F3491FC01EA57FF4F42
:10013000E491EE23C9F0222339F0233001F1A8F431
:10014000213019F1223029F1F0E0EE0FFF1FE458C1
:10015000FF4FA591B4918FB7F894EC91611126C02F
:1001600030953E233C938FBF08952730A9F0283067
:10017000C9F0243049F7809180008F7D03C08091C1
:1001800080008F7780938000DFCF84B58F7784BD28
:10019000DBCF84B58F7DFBCF8091B0008F778093CC
:1001A000B000D2CF8091B0008F7DF9CF3E2BDACF57
:1001B000CF93DF9390E0FC01E656FF4F24918A57DE
:1001C0009F4FFC0184918823D1F090E0880F991F04
:1001D000FC01EE58FF4FA591B491FC01E458FF4F8C
:1001E000C591D49161110EC09FB7F8948C91E22F04
:1001F000E0958E238C932881E223E8839FBFDF91D3
:10020000CF9108958FB7F894EC91E22BEC938FBFC8
:10021000F6CF3FB7F89480914B0190914C01A0919B
:100220004D01B0914E0126B5A89B05C02F3F19F096
:100230000196A11DB11D3FBFBA2FA92F982F882766
:10024000BC01CD01620F711D811D911D42E0660F41
:10025000771F881F991F4A95D1F70895AF92BF92D3
:10026000CF92DF92EF92FF920F931F93CF93DF9382
:100270006C017B018B01040F151FEB015E01AE18B1
:10028000BF08C017D10759F06991D601ED91FC91D3
:100290000190F081E02DC6010995892B79F7C50100
:1002A000DF91CF911F910F91FF90EF90DF90CF9052
:1002B000BF90AF900895FC01538D448D252F30E001
:1002C000842F90E0821B930B541710F0CF96089563
:1002D00001970895FC01918D828D981761F0A28D90
:1002E000AE0FBF2FB11D5D968C91928D9F5F9F7356
:1002F000928F90E008958FEF9FEF0895FC01918D0C
:10030000828D981731F0828DE80FF11D858D90E078
:1003100008958FEF9FEF0895FC01918D228D892F15
:1003200090E0805C9F4F821B91098F7399270895FD
:100330008FE491E00E948C0121E0892B09F420E0F8
:10034000822F089580E090E0892B29F00E94980187
:1003500081110C9400000895FC01A48DA80FB92F01
:10036000B11DA35ABF4F2C91848D90E001968F73DD
:100370009927848FA689B7892C93A089B1898C91FC
:10038000837080648C93938D848D981306C002884B
:10039000F389E02D80818F7D80830895EF92FF9215
:1003A0000F931F93CF93DF93EC0181E0888F9B8D98
:1003B0008C8D98131AC0E889F989808185FF15C052
:1003C0009FB7F894EE89FF896083E889F989808175
:1003D0008370806480839FBF81E090E0DF91CF9144
:1003E0001F910F91FF90EF900895F62E0B8D10E066
:1003F0000F5F1F4F0F731127E02E8C8D8E110CC0D5
:100400000FB607FCFACFE889F989808185FFF5CF1F
:10041000CE010E94AC01F1CFEB8DEC0FFD2FF11D51
:10042000E35AFF4FF0829FB7F8940B8FEA89FB895C
:1004300080818062CFCFCF93DF93EC01888D8823BA
:10044000B9F0AA89BB89E889F9898C9185FD03C037
:10045000808186FD0DC00FB607FCF7CF8C9185FF1C
:10046000F2CF808185FFEDCFCE010E94AC01E9CFB4
:10047000DF91CF910895CF93DF93EC0161E0029774
:1004800009F060E082E00E948C0061E0C830D10594
:1004900009F060E088E00E948C0061E0249709F098
:1004A00060E084E0DF91CF910C948C00FC0101901E
:1004B0000020E9F73197AF01481B590BBC018FE4CD
:1004C00091E00C942E01CF93DF930E945602EC0131
:1004D00082E191E00E9456028C0F9D1FDF91CF9127
:1004E00008951F920F920FB60F9211242F933F93EE
:1004F0008F939F93AF93BF93809147019091480151
:10050000A0914901B0914A013091460123E0230FA7
:100510002D3758F50196A11DB11D209346018093FA
:10052000470190934801A0934901B0934A018091FB
:100530004B0190914C01A0914D01B0914E0101965B
:10054000A11DB11D80934B0190934C01A0934D01CF
:10055000B0934E01BF91AF919F918F913F912F9199
:100560000F900FBE0F901F90189526E8230F02964C
:10057000A11DB11DD2CF1F920F920FB60F92112461
:100580002F933F934F935F936F937F938F939F939B
:10059000AF93BF93EF93FF938FE491E00E94AC0180
:1005A000FF91EF91BF91AF919F918F917F916F914B
:1005B0005F914F913F912F910F900FBE0F901F9021
:1005C00018951F920F920FB60F9211242F938F93AD
:1005D0009F93EF93FF93E0915F01F0916001808121
:1005E000E0916501F091660182FD1BC090818091D0
:1005F00068018F5F8F7320916901821741F0E0914C
:100600006801F0E0E15BFE4F958F80936801FF91F8
:10061000EF919F918F912F910F900FBE0F901F9090
:1006200018958081F4CFCF92DF92EF92FF920F93D3
:100630001F93E82FF92F05C0015011092109310935
:1006400061F1908196239417B9F305C00150110907
:100650002109310911F1908196239413F7CFC12C10
:10066000D12CE12CF12C0AC08FEFC81AD80AE80A65
:10067000F80A0C151D052E053F0579F080818623AB
:10068000841791F36C2D7D2D8E2D9F2D1F910F9131
:10069000FF90EF90DF90CF90089560E070E080E0F1
:1006A00090E01F910F91FF90EF90DF90CF90089511
:1006B000CF93DF93CDB7DEB7A1970FB6F894DEBF27
:1006C0000FBECDBF789484B5826084BD84B581604F
:1006D00084BD85B5826085BD85B5816085BD80910D
:1006E0006E00816080936E00109281008091810085
:1006F000826080938100809181008160809381007D
:10070000809180008160809380008091B10084603E
:100710008093B1008091B00081608093B00080919F
:100720007A00846080937A0080917A00826080935E
:100730007A0080917A00816080937A0080917A00BB
:10074000806880937A001092C100E0915F01F0917F
:10075000600182E08083E0915B01F0915C01108296
:10076000E0915D01F0915E018FEC80831092670152
:10077000E0916301F091640186E08083E091610182
:10078000F0916201808180618083E0916101F0914C
:100790006201808188608083E0916101F091620153
:1007A000808180688083E0916101F09162018081A5
:1007B0008F7D808360E08CE00E94D80061E08DE056
:1007C0000E94D80061E082E00E94D80061E088E0E9
:1007D0000E94D80061E084E00E94D80061E087E0D8
:1007E0000E94D80023E2222E312C3AE0432E512CD5
:1007F000612C712C60E08DE00E948C00C10101979A
:10080000F1F761E08DE00E948C00C1010197F1F7E2
:1008100060E08DE00E948C00C1010197F1F7E6EAEB
:10082000F0E06491E2E9F0E08491E82FF0E0EE0F6F
:10083000FF1FE859FF4F8591949100E412E42FE0E7
:1008400030E0462F0E941303611571058105910563
:1008500029F06F5F7F4F8F4F9F4F9F7060934201D2
:100860007093430180934401909345012AE330E063
:1008700040E050E00E94C60520933E0130933F01C6
:10088000409340015093410185E191E00E9456025E
:10089000C0903E01D0903F01E0904001F0904101B6
:1008A000F7FE77C06DE28FE491E00E94CE0122272F
:1008B0003327A9012C193D094E095F0919A2CE0160
:1008C00081967C01CA01B901A30192010E94A4058D
:1008D000605DF70162937F012115310541055105E6
:1008E00089F7E114F10419F0C7010E94560282E170
:1008F00091E00E9456026091420170914301809103
:100900004401909145010E9440056B017C0120E06B
:1009100030E242E354E40E94390518160CF44FC04B
:1009200087E291E00E94630284E090E00E943B0233
:100930000E9409016B017C0184E6882E912CA12C78
:10094000B12C0E9409016C197D098E099F09683E2E
:10095000734081059105A8F3F1E08F1A9108A10871
:10096000B10828EEC20E23E0D21EE11CF11C811456
:100970009104A104B10429F780E090E0892B09F4E7
:1009800039CF0E949801882309F434CF0E940000D7
:1009900031CFA701960119A2CE0181967C01CA012F
:1009A000B901A30192010E94A405605DF701629361
:1009B0007F01211531054105510589F792CF26E6C2
:1009C00036E242E354E4C701B6010E949F051816BF
:1009D0008CF420E038E945E055E4C701B6010E94F7
:1009E000390587FF07C08EE291E00E94630288E02C
:1009F00090E09CCF2AE939E945E055E4C701B6010A
:100A00000E949F0518160CF093CF86E391E00E9498
:100A1000630282E090E08ACFEFE4F1E01382128279
:100A200088EE93E0A0E0B0E084839583A683B7834B
:100A300084E091E09183808385EC90E095878487C2
:100A400084EC90E09787868780EC90E0918B808B98
:100A500081EC90E0938B828B82EC90E0958B848B81
:100A600086EC90E0978B868B118E128E138E148EEF
:100A700008950E947B0508F481E00895E89409C078
:100A800097FB3EF490958095709561957F4F8F4FC1
:100A90009F4F9923A9F0F92F96E9BB279395F695D7
:100AA000879577956795B795F111F8CFFAF4BB0F55
:100AB00011F460FF1BC06F5F7F4F8F4F9F4F16C0B9
:100AC000882311F096E911C0772321F09EE8872F43
:100AD000762F05C0662371F096E8862F70E060E0FF
:100AE0002AF09A95660F771F881FDAF7880F969578
:100AF000879597F90895990F0008550FAA0BE0E81C
:100B0000FEEF16161706E807F907C0F012161306CF
:100B1000E407F50798F0621B730B840B950B39F40F
:100B20000A2661F0232B242B252B21F408950A2675
:100B300009F4A140A6958FEF811D811D08950E94A3
:100B40007B0508F48FEF0895A1E21A2EAA1BBB1BA8
:100B5000FD010DC0AA1FBB1FEE1FFF1FA217B30789
:100B6000E407F50720F0A21BB30BE40BF50B661F9F
:100B7000771F881F991F1A9469F760957095809563
:100B800090959B01AC01BD01CF010895052E97FB07
:100B90001EF400940E94DD0557FD07D00E94A405B5
:100BA00007FC03D04EF40C94DD055095409530952C
:100BB00021953F4F4F4F5F4F0895909580957095C9
:100BC00061957F4F8F4F9F4F0895EE0FFF1F059048
:0A0BD000F491E02D0994F894FFCF92
:100BDA0000000000CE012E015B011B028C016A019C
:100BEA007E010D0A0044697374616E636961206550
:100BFA006D20636D3A200050657269676F00417419
:0E0C0A00656E63616F0053656775726F000061
:00000001FF
